:020000040000FA
:1000000000008A110A1204281130FE000130FF009E
:1000100080308A110A12F0208A110A128312031307
:10002000A1007F08A0001330A2000130A3008312BA
:1000300003132008A4002108A500FF30A007031C1B
:10004000A103240825040319942804302207A400DE
:10005000A501A50D2308A5072408FE002508FF001B
:1000600080308A110A12F0208A110A1283120313B7
:10007000A7007F08A6002208FE002308FF008030AA
:100080008A110A12F0208A110A1283120313A9009E
:10009000A5007F08A800A40002302207A400A50143
:1000A000A50D2308A5072408FE002508FF008030C1
:1000B0008A110A12F0208A110A1283120313A50072
:1000C000AB007F08A400AA00831203132608AA002D
:1000D0002708AB00FF30A607031CA7032A082B0440
:1000E00003198D282808FE002908FF0080308A1196
:1000F0000A12DD208A110A1283120313AA002408AF
:1001000084008313251883172A088000A80A03197E
:10011000A90AA40A0319A50A642806308312031346
:10012000A2070318A30A17288A110A1298280800A0
:100130008A110A12D9208A110A1283120313330872
:1001400083120313860083120313330883120313ED
:10015000AC0083120313B30A0430831203132C027E
:10016000031CB628013083120313B3003030FF00A4
:1001700075308A110A12C0208A110A129D280800BF
:1001800083120313AE007F08AD00AF01B0018312EC
:1001900003132F08B1003008B200AF0A0319B00AE8
:1001A0002E083202031DD6282D083102031CC72851
:1001B00008008316031386010800003A0319E42897
:1001C000803A0319EB2800347E08840083137F18DB
:1001D0008317000808007F088A007E088200080054
:1001E000003A0319F828803A03190229FF01003464
:1001F0007E08840083137F1883170008FF00840A99
:10020000000808008A110A12EB20FD00FE0FFF0310
:10021000FF0A8A110A12EB20FC007D08FF007C080F
:10022000080001340034193401343434003401340A
:040230000034003462
:02400E00E420AC
:024010000007A7
:00000001FF
