:020000040000FA
:1000000000008A110A1204283130FE000130FF007E
:1000100080308A110A1210218A110A1283120313E6
:10002000A1007F08A0003330A2000130A30083129A
:1000300003132008A4002108A500FF30A007031C1B
:10004000A103240825040319942804302207A400DE
:10005000A501A50D2308A5072408FE002508FF001B
:1000600080308A110A1210218A110A128312031396
:10007000A7007F08A6002208FE002308FF008030AA
:100080008A110A1210218A110A1283120313A9007D
:10009000A5007F08A800A40002302207A400A50143
:1000A000A50D2308A5072408FE002508FF008030C1
:1000B0008A110A1210218A110A1283120313A50051
:1000C000AB007F08A400AA00831203132608AA002D
:1000D0002708AB00FF30A607031CA7032A082B0440
:1000E00003198D282808FE002908FF0080308A1196
:1000F0000A12FD208A110A1283120313AA0024088F
:1001000084008313251883172A088000A80A03197E
:10011000A90AA40A0319A50A642806308312031346
:10012000A2070318A30A17288A110A1298280800A0
:10013000F030831603138500F030870001308312FE
:100140000313B2000A3083120313B30083120313A4
:1001500032088312031385008312031333088312BA
:10016000031387001F3083120313B3068312031394
:10017000300831040319C128031083120313B20C91
:10018000C528031083120313B20D08308312031322
:100190003202031CD128013083120313B000B101D5
:1001A000DB28831203133208013A031DDB28831274
:1001B0000313B001B1011030FF0027308A110A1279
:1001C000E5208A110A12A628080083120313AD0045
:1001D0007F08AC00AE01AF01831203132D082F027C
:1001E000031DF4282C082E020318FC288312031385
:1001F000AE0A0319AF0AEC280800003A03190429D3
:10020000803A03190B2900347E08840083137F1879
:100210008317000808007F088A007E088200080013
:10022000003A03191829803A03192229FF010034E2
:100230007E08840083137F1883170008FF00840A58
:10024000000808008A110A120B21FD00FE0FFF03AF
:10025000FF0A8A110A120B21FC007D08FF007C08AE
:100260000800023400343F340134303400340234A6
:100270000034413401343434003401340034003467
:040280000034003412
:02400E00E420AC
:024010000007A7
:00000001FF
