:020000040000FA
:1000000000008A110A1204281930FE000130FF0096
:1000100080308A110A12F8208A110A1283120313FF
:10002000A1007F08A0001B30A2000130A3008312B2
:1000300003132008A4002108A500FF30A007031C1B
:10004000A103240825040319942804302207A400DE
:10005000A501A50D2308A5072408FE002508FF001B
:1000600080308A110A12F8208A110A1283120313AF
:10007000A7007F08A6002208FE002308FF008030AA
:100080008A110A12F8208A110A1283120313A90096
:10009000A5007F08A800A40002302207A400A50143
:1000A000A50D2308A5072408FE002508FF008030C1
:1000B0008A110A12F8208A110A1283120313A5006A
:1000C000AB007F08A400AA00831203132608AA002D
:1000D0002708AB00FF30A607031CA7032A082B0440
:1000E00003198D282808FE002908FF0080308A1196
:1000F0000A12E5208A110A1283120313AA002408A7
:1001000084008313251883172A088000A80A03197E
:10011000A90AA40A0319A50A642806308312031346
:10012000A2070318A30A17288A110A1298280800A0
:100130008A110A12DC208A110A128312031333086F
:1001400083120313850083120313330883120313EE
:10015000860083120313330883120313AC00831247
:100160000313B30A0F30831203132C0683120313F5
:1001700087005030FF00C3308A110A12C3208A1151
:100180000A129D28080083120313AE007F08AD00F9
:10019000AF01B001831203132F08B1003008B20081
:1001A000AF0A0319B00A2E083202031DD9282D0800
:1001B0003102031CCA280800F0308316031385009F
:1001C000F0308600F03087000800003A0319EC2870
:1001D000803A0319F32800347E08840083137F18C3
:1001E0008317000808007F088A007E088200080044
:1001F000003A03190029803A03190A29FF01003443
:100200007E08840083137F1883170008FF00840A88
:10021000000808008A110A12F320FD00FE0FFF03F8
:10022000FF0A8A110A12F320FC007D08FF007C08F7
:1002300008000234003427340134333400340134EC
:1002400000342834013434340034013400340034B0
:02025000003478
:02400E00E420AC
:024010000007A7
:00000001FF
