:020000040000FA
:1000000000008A110A12D2288A110A12B3208A111A
:100010000A1283120313370883120313AC00AC0ACD
:100020002C0883120313B700831203132C083C3AE5
:10003000031D222883120313B7018A110A124B20D1
:100040008A110A1280308312031385068830FF005C
:10005000E6308A110A126B208A110A120928080058
:1000600083120313390883120313B600B60A360845
:1000700083120313B9008312031336080C3A031DCD
:10008000442883120313B90183120313390883121E
:100090000313870008008312031338088312031325
:1000A000B500B50A350883120313B8008312031391
:1000B00035083C3A031D642883120313B8018A11E2
:1000C0000A1230208A110A1283120313380883128D
:1000D00003138500080083120313AE007F08AD00F0
:1000E000831203133C0883120313AF00831203131C
:1000F000390883120313B000B10130082F06031929
:10010000B10A831203133B0883120313AF00831257
:100110000313380883120313B000B20130082F060E
:100120000319B20AAF01B001831203132F08B30001
:100130003008B400AF0A0319B00A2E083402031DB8
:10014000A3282D0833020318B228831203133108A1
:1001500003199428320803199428FF3083120313DB
:1001600086069428080083120313B7010A30B800EA
:10017000B9000B3083120313BB000A30BC00831696
:100180000313850186018701831203133808831244
:1001900003138500860183120313390883120313A6
:1001A000870008009A30FE000130FF0080308A117D
:1001B0000A1279218A110A1283120313A1007F08FF
:1001C000A0009C30A2000130A3008312031320087A
:1001D000A4002108A500FF30A007031CA1032408E8
:1001E00025040319622904302207A400A501A50DE6
:1001F0002308A5072408FE002508FF0080308A1187
:100200000A1279218A110A1283120313A7007F08A8
:10021000A6002208FE002308FF0080308A110A127F
:1002200079218A110A1283120313A900A5007F08FD
:10023000A800A40002302207A400A501A50D2308F0
:10024000A5072408FE002508FF0080308A110A1245
:1002500079218A110A1283120313A500AB007F08CB
:10026000A400AA00831203132608AA002708AB00E3
:10027000FF30A607031CA7032A082B0403195B29D8
:100280002808FE002908FF0080308A110A12662122
:100290008A110A1283120313AA002408840083130C
:1002A000251883172A088000A80A0319A90AA40A96
:1002B0000319A50A3229063083120313A207031873
:1002C000A30AE5288A110A1204280800003A031933
:1002D0006D29803A0319742900347E088400831341
:1002E0007F188317000808007F088A007E088200B4
:1002F0000800003A03198129803A03198B29FF016C
:1003000000347E08840083137F1883170008FF00E1
:10031000840A000808008A110A127421FD00FE0FE9
:10032000FF03FF0A8A110A127421FC007D08FF00F6
:100330007C08080001340034A23401343D34003418
:060340000134003400341A
:02400E00E420AC
:024010000007A7
:00000001FF
