:020000040000FA
:1000000000008A110A129A288A110A1280208A1185
:100010000A1283120313350883120313AC00AC0ACF
:100020002C0883120313B500831203132C083C3AE7
:10003000031D222883120313B5018A110A124720D7
:100040008A110A128830FF00E6308A110A126720EE
:100050008A110A1209280800831203133708831231
:100060000313B400B40A340883120313B7008312D5
:10007000031334080C3A031D402883120313B701FD
:1000800083120313370883120313870008008312B7
:100090000313360883120313B300B30A3308831221
:1000A0000313B6008312031333083C3A031D602880
:1000B00083120313B6018A110A122C208A110A1224
:1000C000831203133608831203138500080083127A
:1000D0000313AE007F08AD00AF01B001831203131C
:1000E0002F08B1003008B200AF0A0319B00A2E0879
:1000F0003202031D7D282D083102031C6E280800E2
:10010000C030831603138500F03087000A30831255
:100110000313B7001E30B600B501B601B7013608AB
:10012000831203138500831203133708831203130A
:10013000870008006230FE000130FF0080308A1125
:100140000A1241218A110A1283120313A1007F08A7
:10015000A0006430A2000130A30083120313200822
:10016000A4002108A500FF30A007031CA103240858
:10017000250403192A2904302207A400A501A50D8E
:100180002308A5072408FE002508FF0080308A11F7
:100190000A1241218A110A1283120313A7007F0851
:1001A000A6002208FE002308FF0080308A110A12F0
:1001B00041218A110A1283120313A900A5007F08A6
:1001C000A800A40002302207A400A501A50D230861
:1001D000A5072408FE002508FF0080308A110A12B6
:1001E00041218A110A1283120313A500AB007F0874
:1001F000A400AA00831203132608AA002708AB0054
:10020000FF30A607031CA7032A082B040319232980
:100210002808FE002908FF0080308A110A122E21CA
:100220008A110A1283120313AA002408840083137C
:10023000251883172A088000A80A0319A90AA40A06
:100240000319A50AFA28063083120313A20703181C
:10025000A30AAD288A110A1204280800003A0319DB
:100260003529803A03193C2900347E088400831321
:100270007F188317000808007F088A007E08820024
:100280000800003A03194929803A03195329FF014C
:1002900000347E08840083137F1883170008FF0052
:1002A000840A000808008A110A123C21FD00FE0F92
:1002B000FF03FF0A8A110A123C21FC007D08FF009F
:1002C0007C080800013400346A34013438340034C6
:0602D0000134003400348B
:02400E00E420AC
:024010000007A7
:00000001FF
