:020000040000FA
:1000000000008A110A1204283230FE000130FF007D
:1000100080308A110A1211218A110A1283120313E5
:10002000A1007F08A0003430A2000130A300831299
:1000300003132008A4002108A500FF30A007031C1B
:10004000A103240825040319942804302207A400DE
:10005000A501A50D2308A5072408FE002508FF001B
:1000600080308A110A1211218A110A128312031395
:10007000A7007F08A6002208FE002308FF008030AA
:100080008A110A1211218A110A1283120313A9007C
:10009000A5007F08A800A40002302207A400A50143
:1000A000A50D2308A5072408FE002508FF008030C1
:1000B0008A110A1211218A110A1283120313A50050
:1000C000AB007F08A400AA00831203132608AA002D
:1000D0002708AB00FF30A607031CA7032A082B0440
:1000E00003198D282808FE002908FF0080308A1196
:1000F0000A12FE208A110A1283120313AA0024088E
:1001000084008313251883172A088000A80A03197E
:10011000A90AA40A0319A50A642806308312031346
:10012000A2070318A30A17288A110A1298280800A0
:100130008A110A12ED208A110A1283120313B20ADD
:1001400032083C3A031DAA28B2018A110A12C020C3
:100150008A110A128830FF00E6308A110A12D42070
:100160008A110A129D28080083120313B40A340866
:100170000C3A0319B40134088312031387000800F2
:1001800083120313B30A33083C3A031DCD28B3018D
:100190008A110A12B4208A110A1283120313330837
:1001A000831203138500080083120313AD007F0838
:1001B000AC00AE01AF01831203132E08B0002F086C
:1001C000B100AE0A0319AF0A2D083102031DEA2857
:1001D0002C083002031CDB2808008316031385015A
:1001E00087018312031333088312031385008312DC
:1001F000031334088312031387000800003A03191D
:100200000529803A03190C2900347E0884008313E1
:100210007F188317000808007F088A007E08820084
:100220000800003A03191929803A03192329FF010C
:1002300000347E08840083137F1883170008FF00B2
:10024000840A000808008A110A120C21FD00FE0F22
:10025000FF03FF0A8A110A120C21FC007D08FF002F
:100260007C080800043400344C3401343234003447
:10027000013400344D34013433340034013400345B
:100280004E34013434340034013400344F340134FA
:100290003534003401340034003401340A3400347D
:02400E00E420AC
:024010000007A7
:00000001FF
