:020000040000FA
:1000000000008A110A129C288A110A1284208A117F
:100010000A1283120313370883120313AC00AC0ACD
:100020002C0883120313B700831203132C083C3AE5
:10003000031D222883120313B7018A110A124B20D1
:100040008A110A1280308312031385068830FF005C
:10005000E6308A110A126B208A110A120928080058
:1000600083120313350883120313B400B40A34084F
:1000700083120313B5008312031334080C3A031DD3
:10008000442883120313B501831203133508831226
:100090000313870008008312031336088312031327
:1000A000B300B30A330883120313B6008312031399
:1000B00033083C3A031D642883120313B6018A11E6
:1000C0000A1230208A110A1283120313360883128F
:1000D00003138500080083120313AE007F08AD00F0
:1000E000AF01B001831203132F08B1003008B20032
:1000F000AF0A0319B00A2E083202031D81282D0809
:100100003102031C72280800403083160313850057
:10011000F03087000F3083120313B5003F30B60074
:10012000B7013608831203138500831203133508C1
:1001300083120313870008006430FE000130FF00C3
:1001400080308A110A1243218A110A128312031382
:10015000A1007F08A0006630A2000130A300831236
:1001600003132008A4002108A500FF30A007031CEA
:10017000A1032408250403192C2904302207A40014
:10018000A501A50D2308A5072408FE002508FF00EA
:1001900080308A110A1243218A110A128312031332
:1001A000A7007F08A6002208FE002308FF00803079
:1001B0008A110A1243218A110A1283120313A90019
:1001C000A5007F08A800A40002302207A400A50112
:1001D000A50D2308A5072408FE002508FF00803090
:1001E0008A110A1243218A110A1283120313A500ED
:1001F000AB007F08A400AA00831203132608AA00FC
:100200002708AB00FF30A607031CA7032A082B040E
:10021000031925292808FE002908FF0080308A11CB
:100220000A1230218A110A1283120313AA00240829
:1002300084008313251883172A088000A80A03194D
:10024000A90AA40A0319A50AFC280630831203137D
:10025000A2070318A30AAF288A110A12042808006B
:10026000003A03193729803A03193E2900347E08E1
:10027000840083137F188317000808007F088A0012
:100280007E0882000800003A03194B29803A0319BE
:100290005529FF0100347E08840083137F188317DB
:1002A0000008FF00840A000808008A110A123E2193
:1002B000FD00FE0FFF03FF0A8A110A123E21FC0017
:1002C0007D08FF007C080800013400346C340134E0
:0A02D00038340034013400340034E7
:02400E00E420AC
:024010000007A7
:00000001FF
