:020000040000FA
:1000000000008A110A1204284D30FE000130FF0062
:1000100080308A110A122C218A110A1283120313CA
:10002000A1007F08A0004F30A2000130A30083127E
:1000300003132008A4002108A500FF30A007031C1B
:10004000A103240825040319942804302207A400DE
:10005000A501A50D2308A5072408FE002508FF001B
:1000600080308A110A122C218A110A12831203137A
:10007000A7007F08A6002208FE002308FF008030AA
:100080008A110A122C218A110A1283120313A90061
:10009000A5007F08A800A40002302207A400A50143
:1000A000A50D2308A5072408FE002508FF008030C1
:1000B0008A110A122C218A110A1283120313A50035
:1000C000AB007F08A400AA00831203132608AA002D
:1000D0002708AB00FF30A607031CA7032A082B0440
:1000E00003198D282808FE002908FF0080308A1196
:1000F0000A1219218A110A1283120313AA00240872
:1001000084008313251883172A088000A80A03197E
:10011000A90AA40A0319A50A642806308312031346
:10012000A2070318A30A17288A110A1298280800A0
:100130008A110A120E218A110A128312031335083A
:1001400083120313AC0083120313B50A8312031343
:100150002C083C3A031DB42883120313B5018A11FD
:100160000A12D7208A110A12D130FF00E2308A1118
:100170000A12F5208A110A129D280800831203131F
:10018000370883120313B40083120313B70A8312D0
:10019000031334080C3A031DD02883120313B7014C
:1001A0008312031337088312031386000800831297
:1001B0000313360883120313B30083120313B60A22
:1001C0008312031333083C3A031DEE2883120313F2
:1001D000B6018A110A12BE208A110A128312031371
:1001E0003608831203138500080083120313AE0040
:1001F0007F08AD00AF01B001831203132F08B100D7
:100200003008B200AF0A0319B00A2E083202031DEB
:100210000B292D083102031CFC280800C03083166E
:1002200003138500F03086008312031385018601D5
:100230000800003A03192029803A031927290034BD
:100240007E08840083137F188317000808007F0846
:100250008A007E0882000800003A03193429803A97
:1002600003193E29FF0100347E08840083137F18A0
:1002700083170008FF00840A000808008A110A1288
:100280002721FD00FE0FFF03FF0A8A110A12272112
:10029000FC007D08FF007C0808000434003467344B
:1002A00001343534003401340034683401343634D8
:1002B00000340134003469340134373400340134FB
:1002C00000346A34013438340034013400340034EA
:0602D0000034003400348C
:02400E00E420AC
:024010000007A7
:00000001FF
